{
  "contractName": "WeiboAccount",
  "abi": [
    {
      "inputs": [],
      "payable": false,
      "stateMutability": "nonpayable",
      "type": "constructor"
    },
    {
      "payable": true,
      "stateMutability": "payable",
      "type": "fallback"
    },
    {
      "anonymous": false,
      "inputs": [
        {
          "indexed": true,
          "name": "from",
          "type": "address"
        },
        {
          "indexed": false,
          "name": "_amount",
          "type": "uint256"
        }
      ],
      "name": "LogDonate",
      "type": "event"
    },
    {
      "constant": false,
      "inputs": [
        {
          "name": "weiboString",
          "type": "string"
        }
      ],
      "name": "weibo",
      "outputs": [],
      "payable": false,
      "stateMutability": "nonpayable",
      "type": "function"
    },
    {
      "constant": true,
      "inputs": [
        {
          "name": "weiboId",
          "type": "uint256"
        }
      ],
      "name": "getWeibo",
      "outputs": [
        {
          "name": "weiboString",
          "type": "string"
        },
        {
          "name": "timestamp",
          "type": "uint256"
        }
      ],
      "payable": false,
      "stateMutability": "view",
      "type": "function"
    },
    {
      "constant": true,
      "inputs": [],
      "name": "getLatestWeibo",
      "outputs": [
        {
          "name": "weiboString",
          "type": "string"
        },
        {
          "name": "timestamp",
          "type": "uint256"
        },
        {
          "name": "numberOfWeibos",
          "type": "uint256"
        }
      ],
      "payable": false,
      "stateMutability": "view",
      "type": "function"
    },
    {
      "constant": true,
      "inputs": [],
      "name": "getOwnerAddress",
      "outputs": [
        {
          "name": "adminAddress",
          "type": "address"
        }
      ],
      "payable": false,
      "stateMutability": "view",
      "type": "function"
    },
    {
      "constant": true,
      "inputs": [],
      "name": "getNumberOfWeibos",
      "outputs": [
        {
          "name": "numberOfWeibos",
          "type": "uint256"
        }
      ],
      "payable": false,
      "stateMutability": "view",
      "type": "function"
    },
    {
      "constant": false,
      "inputs": [
        {
          "name": "receiver",
          "type": "address"
        }
      ],
      "name": "adminRetrieveDonations",
      "outputs": [],
      "payable": false,
      "stateMutability": "nonpayable",
      "type": "function"
    },
    {
      "constant": false,
      "inputs": [],
      "name": "adminDeleteAccount",
      "outputs": [],
      "payable": false,
      "stateMutability": "nonpayable",
      "type": "function"
    }
  ],
  "bytecode": "0x608060405234801561001057600080fd5b50600060018190555033600260006101000a81548173ffffffffffffffffffffffffffffffffffffffff021916908373ffffffffffffffffffffffffffffffffffffffff1602179055506107d0806100696000396000f300608060405260043610610083576000357c0100000000000000000000000000000000000000000000000000000000900463ffffffff1680630c4f65bd146100d35780632f5821ca1461012a5780633b401fd7146101935780633d4e598c146102405780633e450fff146102de5780635c3e426c146102f5578063d2279b5414610338575b3373ffffffffffffffffffffffffffffffffffffffff167fc651c526da5277c9cbde59963e1c4e6324da2fae97ff1e31a326a0475664a383346040518082815260200191505060405180910390a2005b3480156100df57600080fd5b506100e8610363565b604051808273ffffffffffffffffffffffffffffffffffffffff1673ffffffffffffffffffffffffffffffffffffffff16815260200191505060405180910390f35b34801561013657600080fd5b50610191600480360381019080803590602001908201803590602001908080601f016020809104026020016040519081016040528093929190818152602001838380828437820191505050505050919291929050505061038d565b005b34801561019f57600080fd5b506101be600480360381019080803590602001909291905050506103fb565b6040518080602001838152602001828103825284818151815260200191508051906020019080838360005b838110156102045780820151818401526020810190506101e9565b50505050905090810190601f1680156102315780820380516001836020036101000a031916815260200191505b50935050505060405180910390f35b34801561024c57600080fd5b506102556104cc565b6040518080602001848152602001838152602001828103825285818151815260200191508051906020019080838360005b838110156102a1578082015181840152602081019050610286565b50505050905090810190601f1680156102ce5780820380516001836020036101000a031916815260200191505b5094505050505060405180910390f35b3480156102ea57600080fd5b506102f36105ab565b005b34801561030157600080fd5b50610336600480360381019080803573ffffffffffffffffffffffffffffffffffffffff169060200190929190505050610642565b005b34801561034457600080fd5b5061034d6106f5565b6040518082815260200191505060405180910390f35b6000600260009054906101000a900473ffffffffffffffffffffffffffffffffffffffff16905090565b60a081511115151561039e57600080fd5b4260008060015481526020019081526020016000206000018190555080600080600154815260200190815260200160002060010190805190602001906103e59291906106ff565b5060016000815480929190600101919050555050565b606060008060008481526020019081526020016000206001018054600181600116156101000203166002900480601f0160208091040260200160405190810160405280929190818152602001828054600181600116156101000203166002900480156104a85780601f1061047d576101008083540402835291602001916104a8565b820191906000526020600020905b81548152906001019060200180831161048b57829003601f168201915b50505050509150600080848152602001908152602001600020600001549050915091565b6060600080600080600180540381526020019081526020016000206001018054600181600116156101000203166002900480601f01602080910402602001604051908101604052809291908181526020018280546001816001161561010002031660029004801561057e5780601f106105535761010080835404028352916020019161057e565b820191906000526020600020905b81548152906001019060200180831161056157829003601f168201915b50505050509250600080600180540381526020019081526020016000206000015491506001549050909192565b600260009054906101000a900473ffffffffffffffffffffffffffffffffffffffff1673ffffffffffffffffffffffffffffffffffffffff163373ffffffffffffffffffffffffffffffffffffffff1614151561060757600080fd5b600260009054906101000a900473ffffffffffffffffffffffffffffffffffffffff1673ffffffffffffffffffffffffffffffffffffffff16ff5b600260009054906101000a900473ffffffffffffffffffffffffffffffffffffffff1673ffffffffffffffffffffffffffffffffffffffff163373ffffffffffffffffffffffffffffffffffffffff1614151561069e57600080fd5b8073ffffffffffffffffffffffffffffffffffffffff166108fc3073ffffffffffffffffffffffffffffffffffffffff16319081150290604051600060405180830381858888f1935050505015156106f257fe5b50565b6000600154905090565b828054600181600116156101000203166002900490600052602060002090601f016020900481019282601f1061074057805160ff191683800117855561076e565b8280016001018555821561076e579182015b8281111561076d578251825591602001919060010190610752565b5b50905061077b919061077f565b5090565b6107a191905b8082111561079d576000816000905550600101610785565b5090565b905600a165627a7a72305820f6a5dd4f753c7a0915e96fa877985960c13a52fdc5b6f7fc35885281ffc9a3cc0029",
  "source": "pragma solidity ^0.4.10;\n\n/**\n    微博账号\n */\ncontract WeiboAccount {\n\n    //微博结构体\n    struct Weibo {\n        uint timestamp;\n        string weiboString;\n    }\n\n    //这个账户所有博客，微博id映射微博内容\n    mapping(uint => Weibo) _weibos;\n\n    //该账户下微博数量\n    uint _numOfWeibos;\n\n    //微博所有者\n    address _adminAddress;\n\n    //权限控制\n    modifier onlyAdmin {\n        require(msg.sender == _adminAddress);\n        _;\n    }\n\n    function WeiboAccount() {\n        _numOfWeibos = 0;\n        _adminAddress = msg.sender;\n    }\n\n    //发送微博方法\n    function weibo(string weiboString) {\n        require(bytes(weiboString).length <= 160);  //限制内容在160字节以下\n\n        _weibos[_numOfWeibos].timestamp = now;\n        _weibos[_numOfWeibos].weiboString = weiboString;\n        _numOfWeibos++;\n    }\n\n    //根据id查找微博\n    function getWeibo(uint weiboId) view returns (string weiboString, uint timestamp) {\n        weiboString = _weibos[weiboId].weiboString;\n        timestamp = _weibos[weiboId].timestamp;\n    }\n\n    //查询最新一条微博\n    function getLatestWeibo() view returns (string weiboString, uint timestamp, uint numberOfWeibos) {\n        weiboString = _weibos[_numOfWeibos - 1].weiboString;\n        timestamp = _weibos[_numOfWeibos - 1].timestamp;\n        numberOfWeibos = _numOfWeibos;\n    }\n\n    //查询微博所有者地址\n    function getOwnerAddress() view returns (address adminAddress) {\n        return _adminAddress;\n    }\n\n    //查询微博总数\n    function getNumberOfWeibos() view returns (uint numberOfWeibos) {\n        return _numOfWeibos;\n    }\n\n    //取回打赏\n    function adminRetrieveDonations(address receiver) onlyAdmin {\n        assert(receiver.send(this.balance));\n    }\n\n    //摧毁合约\n    function adminDeleteAccount() onlyAdmin {\n        selfdestruct(_adminAddress);\n    }\n\n    //记录每条打赏记录\n    event LogDonate(address indexed from, uint256 _amount);\n\n    //接受打赏\n    function() payable {\n        LogDonate(msg.sender, msg.value);\n    }\n    \n}\n",
  "sourcePath": "/home/zhujiantao/truffle-examples/eth-weibo/contracts/WeiboAccount.sol",
  "compiler": {
    "name": "solc",
    "version": "0.4.24+commit.e67f0147.Emscripten.clang"
  },
  "schemaVersion": "2.0.1",
  "updatedAt": "2018-08-19T06:14:44.800Z"
}